:1000000014C021C020C01FC01EC06EC04FC01BC086
:100010001AC019C018C017C016C015C014C013C02C
:1000200012C011C010C057C164C111241FBECFED52
:10003000CDBF20E0A0E6B0E001C01D92A837B20716
:10004000E1F77ED17AC3DCCF683008F061E0BA9A7C
:1000500090B7906890BF93B7987F93BF93B7692B81
:1000600063BF86BF08955F9BFECF8CB108955D9BF3
:10007000FECF8CB9089592B387FF09C09B7B92BBDA
:10008000819590E0880F991F99BD88BD089594646B
:1000900092BBF7CF87FF08C09398819590E0880FB7
:1000A000991F9BBD8ABD0895939AF8CF1F920F9216
:1000B0000FB60F9211248F939F93809169009091B6
:1000C0006A00009751F0019790936A00809369004D
:1000D000892B19F08091680016BE9F918F910F9027
:1000E0000FBE0F901F9018951F920F920FB60F9290
:1000F0001124AF92BF92CF92DF92EF92FF920F93B3
:100100001F932F933F934F935F936F937F938F939F
:100110009F93AF93BF93CF93DF93EF93FF930091A0
:100120006D0010916E00C0916F00D09170000115AC
:10013000110509F4BBC0209709F4B8C0809166008E
:1001400090916700892B09F4AAC010926700109261
:100150006600E0907300F0907400809164009091CC
:100160006500E81AF90AC0907100D0907200809181
:10017000620090916300C81AD90A80E090E026D20C
:10018000282F30E0C901B7014ED2B80176D27B01E9
:10019000C901B60148D2BE0170D2E61AF70A83E05F
:1001A00090E01BD2B7013FD228EEA22E23E0B22E60
:1001B000B50163D26B0181E090E00FD2B70133D279
:1001C000B5015BD2E0906000F0906100E60EF71E92
:1001D0002EE1E21621EFF20624F49EE1E92E91EFE2
:1001E000F92E83EEE8168EE0F80624F082EEE82E73
:1001F0008EE0F82EF0926100E0926000F0927400C0
:10020000E0927300CE018C0D9D1D8E0D9F1D8138D7
:100210002FEF920714F481E89FEF8038910514F0D6
:100220008FE790E037DFC8018C199D098E199F096F
:1002300081382FEF920714F481E89FEF8038910501
:1002400014F08FE790E017DF8091710090917200B9
:10025000909363008093620080917300909174008A
:100260009093650080936400FF91EF91DF91CF91AF
:10027000BF91AF919F918F917F916F915F914F91BE
:100280003F912F911F910F91FF90EF90DF90CF90B2
:10029000BF90AF900F900FBE0F901F90189581E008
:1002A00090E09093670080936600DECF80917300AA
:1002B0009091740090936500809364008091710028
:1002C000909172009093630080936200802FD3DE40
:1002D0008C2FE0DEC9CF1F920F920FB60F92112420
:1002E0008F9389B389B38F910F900FBE0F901F909A
:1002F00018951F920F920FB60F9211242F938F9380
:100300009F9320B380B390E095958795822784FDD5
:1003100011C08091710090917200019690937200CB
:10032000809371009F918F912F910F900FBE0F902E
:100330001F90189580917100909172000197EECFF7
:10034000B0E0A0E0E5EAF1E0CDC11ABA1BBA17BAF5
:1003500018BA11BA12BABB9ABC9A8B9A81B3846448
:1003600081BB1BB888E18AB99EE293B912B89CE0C0
:1003700099B990E895BF8BBFC1E0C4B980E185B958
:1003800080EA8FBD82E18EBD8FEF90E095BD84BD88
:1003900080E071DE80E07EDE82E083BFC0BF82E865
:1003A00089BF8FB780688FBF38EE832E33E0932EDE
:1003B000A12CB12C8091760090917700009741F0AC
:1003C000019709F471C0109277001092760013C063
:1003D0004ADEC82F8093750087FDECCF8532A9F1E6
:1003E00060F58530B1F048F4823009F44EC008F071
:1003F00041C08130E9F184E14FC08C3009F44EC036
:1004000068F48830C0F71092740010927300863040
:1004100079F110927200109271002AC0813259F75E
:100420001092700010926F0010926E0010926D008A
:1004300080E030DE80E01FDE1BC0823431F088F4C3
:100440008D3219F048F48932B1F681E090E0909352
:10045000770080937600AECF8F32B9F38034A9F362
:10046000CACF843491F3E0F0863479F3873419F6F7
:1004700080E112C00091730010917400812FF7DDAC
:10048000802FF5DDC33009F495CFC0917100D09174
:1004900072008D2FECDD8C2FEADD8CCFE4DDFCCFFC
:1004A00080B78F7380BFE4CF7090750099E2F12C14
:1004B000E12C791619F0D7DDE82EF12CDE2CCC24B6
:1004C000D0926C00C0926B0085E210E000E07816DC
:1004D00009F44CC0C8DD082F10E0872D897F8034D7
:1004E00019F09FE2791242C0BEDDC82FD0E0DC2FA8
:1004F000CC27B9DDC82BB7DD682E80E1B8DDC02A76
:10050000D12AD0926C00C0926B00972D977F89E220
:10051000781669F0872D8B7F953261F50E2C000CD3
:10052000FF08F0927000E0926F00893239F4002EDB
:10053000000C110B10936E0000936D009FE2791276
:100540000CC0B60183E090E05CD0BE0181E090E099
:1005500058D0662D80E090E043D010926C0010924D
:100560006B00109277001092760024CF612CD0E0BF
:10057000C0E0C3CF823431F1803401F71601512C31
:10058000412CB6017695679590E080E0605C7D4BEC
:10059000804F9F4FA201910183D061E0C90154DDDA
:1005A000BE0190E080E0A20191014ED0A50194012E
:1005B00077D030936A0020936900872D84708093F0
:1005C0006800BCCF662DC6013FDDB8CFE199FECFF4
:1005D0008EBBE09A99278DB30895A8E142E017C039
:1005E000262FE199FECF8EBBE09A81500DB2021604
:1005F00039F01CBA2DBB0FB6F894E29AE19A0FBEFF
:1006000008950196272FEDDFEBCFA82F862FE82F37
:10061000E199FECF05C0EEBBE09AE3950DB20D92D5
:100620004150C8F708950024552704C0080E591FEB
:10063000880F991F009729F076956795B8F3710593
:10064000B9F7802D952F0895EE27FF27AA27BB27FE
:1006500008C0A20FB31FE41FF51F220F331F441F52
:10066000551F969587957795679598F37040A9F7EC
:10067000009799F7BD01CF01089597FB072E16F457
:10068000009406D077FD08D044D007FC05D03EF496
:10069000909581959F4F0895709561957F4F08952E
:1006A000A1E21A2EAA1BBB1BFD010DC0AA1FBB1F76
:1006B000EE1FFF1FA217B307E407F50720F0A21BE8
:1006C000B30BE40BF50B661F771F881F991F1A9455
:1006D00069F760957095809590959B01AC01BD017F
:1006E000CF0108952F923F924F925F926F927F9227
:1006F0008F929F92AF92BF92CF92DF92EF92FF9232
:100700000F931F93CF93DF93CDB7CA1BCDBFDD27C8
:100710000994AA1BBB1B51E107C0AA1FBB1FA61748
:10072000B70710F0A61BB70B881F991F5A95A9F79A
:0E07300080959095BC01CD010895F894FFCFFF
:00000001FF
