:1000000014C021C020C01FC01EC06BC04CC01BC08C
:100010001AC019C018C017C016C015C014C013C02C
:1000200012C011C010C067C08DC011241FBECFED1B
:10003000CDBF20E0A0E6B0E001C01D92AC36B20713
:10004000E1F7A7D01DC2DCCF683008F061E0BA9AB2
:1000500090B7906890BF93B7987F93BF93B7692B81
:1000600063BF86BF08955F9BFECF8CB108955D9BF3
:10007000FECF8CB9089587FF08C09298819590E0D3
:10008000880F991F99BD88BD0895929AF8CF87FF70
:1000900008C09398819590E0880F991F9BBD8ABDF9
:1000A0000895939AF8CF1F920F920FB60F921124D2
:1000B0008F939F938091610090916200009751F01F
:1000C00001979093620080936100892B19F08091D1
:1000D000600016BE9F918F910F900FBE0F901F90E2
:1000E00018951F920F920FB60F9211240F900FBE0A
:1000F0000F901F9018951F920F920FB60F92112418
:100100002F938F939F9329B389B390E0959587950B
:10011000822780FD11C08091670090916800019650
:1001200090936800809367009F918F912F910F901B
:100130000FBE0F901F9018958091670090916800F6
:100140000197EECF1F920F920FB60F9211242F93AB
:100150008F939F9320B380B390E0959587958227E6
:1001600084FD11C080916500909166000196909386
:100170006600809365009F918F912F910F900FBE25
:100180000F901F90189580916500909166000197DF
:10019000EECF1ABA1BBA17BA18BA11BA12BABB9A6A
:1001A000BC9A8B9A8A9A1BB888E18AB99EE293B965
:1001B00012B89CE099B990E895BF8BBFC1E0C4B973
:1001C00080E185B980EA8FBD82E18EBD8FEF90E03E
:1001D00095BD84BD80E04FDF80E059DF82E083BFC2
:1001E000C0BF82E889BF8FB780688FBF38EE832E8B
:1001F00033E0932EA12CB12C80916A0090916B007A
:10020000009741F0019709F468C010926B001092BA
:100210006A0012C028DFC82F8093690087FDECCFE9
:10022000853261F118F58530A9F040F4823009F487
:1002300045C0C8F58130A9F184E147C08C3009F48C
:1002400046C068F48830C0F71092680010926700CA
:10025000863039F1109266001092650022C081321A
:1002600059F780E014DF80E006DF1BC0823431F0F4
:1002700088F48D3219F048F48932F1F681E090E08B
:1002800090936B0080936A00B7CF8F32B9F38034BC
:10029000A9F3D2CF843491F3E0F0863479F3873434
:1002A00059F680E112C00091670010916800812F1B
:1002B000DEDE802FDCDEC33009F49ECFC091650006
:1002C000D09166008D2FD3DE8C2FD1DE95CFCBDE83
:1002D000FCCF80B78F7380BFE4CF10916900D12C21
:1002E000C12C193219F0BFDEC82ED12CFC2CEE2403
:1002F000F0926400E0926300512C412C153209F415
:100300003FC0B1DE482E512C812F897F803411F0FF
:100310001F32B1F5A8DEC82FD0E0DC2FCC27A3DE3A
:10032000C82BA1DE682E80E1A2DEE428F528F09239
:100330006400E0926300812F877F193241F0012F22
:100340000B7F853209F58C2DA2DE093211F4842D44
:1003500092DE1F3261F4B70183E090E052D0BE011B
:1003600081E090E04ED0662D80E090E039D0109290
:1003700064001092630010926B0010926A003CCFF0
:10038000612CD0E0C0E0CFCF023431F1003409F766
:100390001701512C412CB7017695679590E080E0CC
:1003A000605C7D4B804F9F4FA201910147D061E07F
:1003B000C9014ADEBE0190E080E0A201910125D092
:1003C000A50194013BD03093620020936100812FFE
:1003D000847080936000BDCF662DC70135DEB9CF34
:1003E000262FE199FECF8EBBE09A81500DB2021606
:1003F00039F01CBA2DBB0FB6F894E29AE19A0FBE01
:1004000008950196272FEDDFEBCFEE27FF27AA27D0
:10041000BB2708C0A20FB31FE41FF51F220F331F15
:10042000441F551F969587957795679598F370406B
:10043000A9F7009799F7BD01CF010895A1E21A2EFF
:10044000AA1BBB1BFD010DC0AA1FBB1FEE1FFF1F78
:10045000A217B307E407F50720F0A21BB30BE40BC8
:10046000F50B661F771F881F991F1A9469F760950F
:100470007095809590959B01AC01BD01CF010895C9
:04048000F894FFCF1E
:00000001FF
