:1000000014C021C020C01FC01EC06DC04FC01BC087
:100010001AC019C018C017C016C015C014C013C02C
:1000200012C011C010C041C167C111241FBECFED65
:10003000CDBF20E0A0E6B0E001C01D92A837B20716
:10004000E1F781D17CC3DCCF683008F061E0BA9A77
:1000500090B7906890BF93B7987F93BF93B7692B81
:1000600063BF86BF08955F9BFECF8CB108955D9BF3
:10007000FECF8CB9089592B387FF09C09B7B92BBDA
:10008000819590E0880F991F99BD88BD089594646B
:1000900092BBF7CF87FF08C09398819590E0880FB7
:1000A000991F9BBD8ABD0895939AF8CF1F920F9216
:1000B0000FB60F9211248F939F93809169009091B6
:1000C0006A00009761F0019790936A00809369003D
:1000D0009F918F910F900FBE0F901F901895809158
:1000E000680016BEF5CF1F920F920FB60F92112423
:1000F000AF92BF92CF92DF92EF92FF920F931F9336
:100100002F933F934F935F936F937F938F939F931F
:10011000AF93BF93CF93DF93EF93FF9300916D0065
:1001200010916E00C0916F00D09170000115110503
:1001300009F4A6C0209709F4A3C0809166009091AD
:100140006700843F21E0920708F494C01092670092
:1001500010926600E0907300F0907400809164004B
:1001600090916500E81AF90AC0907100D090720071
:100170008091620090916300C81AD90A80E090E0F3
:1001800027D2282F30E0C901B7014FD2B80177D26A
:100190007B01C901B60149D2BE0171D2E61AF70A44
:1001A00083E090E01CD2B70140D228EEA22E23E0DB
:1001B000B22EB50164D26B0181E090E010D2B7019C
:1001C00034D2B5015CD2E0906000F0906100E60EA0
:1001D000F71EF0926100E0926000C6018C0F9D1F37
:1001E0008E0D9F1D81382FEF920714F481E89FEF49
:1001F0008038910514F08FE790E04CDFC8018C192E
:100200009D098E199F0981382FEF920714F481E818
:100210009FEF8038910514F08FE790E02CDF8091FC
:1002200071009091720090936300809362008091BE
:100230007300909174009093650080936400FF9127
:10024000EF91DF91CF91BF91AF919F918F917F916E
:100250006F915F914F913F912F911F910F91FF905F
:10026000EF90DF90CF90BF90AF900F900FBE0F90A8
:100270001F90189501969093670080936600DFCFDA
:100280008091730090917400909365008093640056
:10029000809171009091720090936300809362004E
:1002A000802FE9DE8C2FF6DECACF1F920F920FB699
:1002B0000F9211242F938F939F9329B389B390E0CA
:1002C00095958795822780FD11C08091730090914C
:1002D0007400019690937400809373009F918F91A6
:1002E0002F910F900FBE0F901F9018958091730063
:1002F000909174000197EECF1F920F920FB60F925C
:1003000011242F938F939F9320B380B390E0959502
:100310008795822784FD11C08091710090917200B1
:10032000019690937200809371009F918F912F910D
:100330000F900FBE0F901F901895809171009091B3
:1003400072000197EECFB0E0A0E0E8EAF1E0CCC1A6
:100350001ABA1BBA17BA18BA11BA12BABB9ABC9A0F
:100360008B9A81B3846481BB1BB888E18AB99EE211
:1003700093B912B89CE099B990E895BF8BBFC1E0E2
:10038000C4B980E185B980EA8FBD82E18EBD8FE777
:1003900090E095BD84BD80E06EDE80E07BDE82E093
:1003A00083BFC0BF82E889BF8FB780688FBF38EE38
:1003B000832E33E0932EA12CB12C80917600909166
:1003C0007700009741F0019709F471C0109277000F
:1003D0001092760013C047DEC82F8093750087FD0A
:1003E000ECCF8532A9F160F58530B1F048F4823068
:1003F00009F44EC008F041C08130E9F184E14FC0FA
:100400008C3009F44EC068F48830C0F71092740044
:1004100010927300863079F1109272001092710080
:100420002AC0813259F71092700010926F0010921A
:100430006E0010926D0080E02DDE80E01CDE1BC09F
:10044000823431F088F48D3219F048F48932B1F6F3
:1004500081E090E09093770080937600AECF8F326A
:10046000B9F38034A9F3CACF843491F3E0F0863431
:1004700079F3873419F680E112C00091730010916E
:100480007400812FF4DD802FF2DDC33009F495CFA5
:10049000C0917100D09172008D2FE9DD8C2FE7DDC6
:1004A0008CCFE1DDFCCF80B78F7380BFE4CF70903D
:1004B000750099E2F12CE12C791619F0D4DDE82EC3
:1004C000F12CDE2CCC24D0926C00C0926B0085E223
:1004D00010E000E0781609F44CC0C5DD082F10E0EC
:1004E000872D897F803419F09FE2791242C0BBDDED
:1004F000C82FD0E0DC2FCC27B6DDC82BB4DD682EAA
:1005000080E1B5DDC02AD12AD0926C00C0926B0088
:10051000972D977F89E2781669F0872D8B7F95322A
:1005200061F50E2C000CFF08F0927000E0926F0055
:10053000893239F4002E000C110B10936E000093D9
:100540006D009FE279120CC0B60183E090E05BD0B1
:10055000BE0181E090E057D0662D80E090E042D06F
:1005600010926C0010926B0010927700109276003F
:1005700024CF612CD0E0C0E0C3CF823429F1803495
:1005800001F71601512C412CB6017695679590E044
:1005900080E07E5E85489F4FA201910183D061E09B
:1005A000C90152DDBE0190E080E0A20191014ED070
:1005B000A501940177D030936A0020936900872DBC
:1005C000847080936800BDCF662DC6013DDDB9CF34
:1005D000E199FECF8EBBE09A99278DB30895A8E1EB
:1005E00042E017C0262FE199FECF8EBBE09A8150E2
:1005F0000DB2021639F01CBA2DBB0FB6F894E29A70
:10060000E19A0FBE08950196272FEDDFEBCFA82FBB
:10061000862FE82FE199FECF05C0EEBBE09AE39567
:100620000DB20D924150C8F708950024552704C01B
:10063000080E591F880F991F009729F07695679526
:10064000B8F37105B9F7802D952F0895EE27FF2790
:10065000AA27BB2708C0A20FB31FE41FF51F220F54
:10066000331F441F551F969587957795679598F387
:100670007040A9F7009799F7BD01CF01089597FB46
:10068000072E16F4009406D077FD08D044D007FC5E
:1006900005D03EF4909581959F4F08957095619592
:1006A0007F4F0895A1E21A2EAA1BBB1BFD010DC0AE
:1006B000AA1FBB1FEE1FFF1FA217B307E407F50712
:1006C00020F0A21BB30BE40BF50B661F771F881FEE
:1006D000991F1A9469F760957095809590959B0184
:1006E000AC01BD01CF0108952F923F924F925F92CE
:1006F0006F927F928F929F92AF92BF92CF92DF9232
:10070000EF92FF920F931F93CF93DF93CDB7CA1B46
:10071000CDBFDD270994AA1BBB1B51E107C0AA1F4F
:10072000BB1FA617B70710F0A61BB70B881F991F92
:100730005A95A9F780959095BC01CD010895F8943C
:02074000FFCFE9
:00000001FF
