:1000000014C021C020C01FC01EC06EC0A6C01BC02F
:100010001AC019C018C017C016C015C014C013C02C
:1000200012C011C010C039C00FC011241FBECFEDC7
:10003000CDBF20E0A0E6B0E001C01D92A33BB20717
:10004000E1F747D3C6C3DCCF1F920F920FB60F92D2
:1000500011242F938F939F9320B380B390E09595B5
:10006000879595958795822784FD11C080916200C0
:1000700090916300019690936300809362009F913A
:100080008F912F910F900FBE0F901F901895809118
:100090006200909163000197EECF1F920F920FB60E
:1000A0000F9211242F938F939F9329B389B390E0DC
:1000B00095958795822780FD11C080916000909171
:1000C0006100019690936100809360009F918F91F1
:1000D0002F910F900FBE0F901F9018958091600088
:1000E000909161000197EECF1F920F920FB60F9281
:1000F00011248F939F938091AF009091B00000974F
:1001000069F001979093B0008093AF00892B31F490
:1001100080916E00882349F01BBC1ABC9F918F917F
:100120000F900FBE0F901F90189519BC18BCF6CFFA
:1001300087FF05C093988195880F86BF0895939A8D
:10014000FBCF92B387FF06C09B7B92BB8195880F44
:100150008CBF0895946492BBFACF1F920F920FB692
:100160000F9211242F933F934F935F936F937F933D
:100170008F939F93AF93BF93EF93FF9380916C0006
:1001800090916D0020916F0030917000009719F4EC
:1001900021153105A9F012161306B4F5409162003D
:1001A0005091630042175307CCF5181619060CF04E
:1001B0004CC020916000309161002817390774F518
:1001C0008091B1009091B200009709F44AC020914B
:1001D000710030917200232B09F443C080916B00B1
:1001E0008F5F80936B00FF91EF91BF91AF919F91D3
:1001F0008F917F916F915F914F913F912F910F90D0
:100200000FBE0F901F9018952115310571F2409186
:10021000620050916300241735073CF216BE1CBEE5
:100220001092B2001092B100109272001092710000
:10023000939882B38B7B82BB1092700010926F00F8
:1002400010926D0010926C00BBCF009709F4B8CFEC
:100250002091600030916100821793070CF4B0CFB9
:10026000DDCF2091600030916100209162003091DB
:10027000630067DF809171005BDFB5CF0F931F9341
:10028000CF938B01C42FBC0182E090E09ED2B801D5
:1002900080E090E09AD26C2F84E090E085D2CF91FC
:1002A0001F910F9108955D9BFECF8CB90895CF9358
:1002B000C82F892FF8DF8C2FF6DFCF91089508958E
:1002C00008955F9BFECF8CB10895823079F01CF4C5
:1002D000882331F00895843069F0863079F00895EC
:1002E000B89A88B36170682B68BB0895B99A88B3CF
:1002F0006270F9CFBB9A88B36870F5CFBC9A88B3A7
:100300006071F1CF8230B1F024F4813051F080E09F
:100310000895833099F08430D1F7BC9896B39071EA
:1003200003C0B89896B3917081E0911101C080E04C
:1003300081950895B99896B39270F6CFBB9896B30D
:100340009870F2CFFC01683008F061E0222379F068
:10035000BB9A9FB590689FBD5BBD4ABD9EB5987F17
:100360009EBD9EB5692B6EBDF5BDE4BD0895BC9ADA
:100370009FB590629FBD59BD48BDF0CFA0E0B0E0F1
:10038000E3ECF1E0EEC1162FEA01022F6C01E12C43
:10039000F12C96958795BC0180E090E07E5E8548C3
:1003A0009F4FA7019601B1D1DA01C901103108F0C0
:1003B0001FE020E130E0211B3109AC0102C056955D
:1003C00047952A95E2F7202F61E0BCDFBE0180E06F
:1003D00090E0A701960180D128EE33E040E050E0A4
:1003E00094D13093B0002093AF0000936E00CDB74E
:1003F000DD27E8E0CDC18FB58F7C8FBD08958FB527
:100400008F738FBD0895A0E0B0E0E8E0F2E0A7C1EF
:100410008091690090916A00009741F0019709F47A
:10042000AFC010926A00109269002AC04ADFC82F3C
:100430008093680087FF16C0807F803E41F46C2F58
:10044000617061958C2F867040DF80E109C0803C2F
:10045000B9F48C2F90E09595879583708F5F52DF6C
:1004600022DF60C0873288F58532C8F58530B1F06B
:1004700048F4823009F451C008F048C0813029F3B3
:1004800084E1EECF8B3009F451C068F48830C0F7B6
:1004900010926100109260008630B9F210926300F1
:1004A00010926200D2CF8C3009F468C0813241F7DB
:1004B00010927200109271001092B2001092B1006E
:1004C00080E036DE80E03DDEC0CF803441F070F465
:1004D0008932B0F28B3218F0CD52C33088F681E009
:1004E00090E090936A00809369001CC08434B9F353
:1004F00030F48234A1F3833419F67DDFA6CF86343D
:1005000071F3873409F0BCCF7ADF9FCF8091600010
:1005100090916100CCDEC33029F08091620090910F
:100520006300C5DECDB7DD27EAE030C1809162000F
:100530009091630020916F0030917000821B930BAB
:1005400097FF03C09195819591090A9714F480E172
:10055000AADE809160009091610020916C00309142
:100560006D00821B930B97FF03C0919581959109B4
:100570000A970CF085CF80E196DE82CFA2DE70CFA5
:10058000C0916800C93281F19CDEA82EB12CFA2CF2
:10059000EE24F0926700E0926600C53241F191DEF0
:1005A000C82ED12C8C2F897F803411F0CF3209F5E1
:1005B00088DE082F10E0102F002783DE082B81DE55
:1005C000D82F80E170DEEC28FD28F0926700E092E1
:1005D00066008C2F8B7F8A3281F0C632A1F4F092B4
:1005E0007000E0926F000FC0A12CB12CD0CFC12CB5
:1005F000D12CD0E000E010E0E4CFF0926D00E0926A
:100600006C00CE3261F39C2F977FC932D1F09532C6
:1006100011F50A2C000CBB08B0927200A092710078
:10062000893289F0CF3221F44D2FB801C70126DE7F
:10063000109267001092660010926A001092690092
:1006400071CF953231F30C2C000CDD08D092B20042
:10065000C092B100E7CF823449F0803419F72C2FD3
:100660002470A8016D2FC70189DEDCCF2C2F2470E8
:10067000A8016D2FC70166DED5CF1ABA1BBA17BA0B
:1006800018BA11BA12BABA9A8D9A8B9A81B3846445
:1006900081BB1BB888E18AB99EE293B912B89CE08D
:1006A00099B990E895BF8BBF81E084B980E185B9A5
:1006B00081EA80BF82E08EBD80E043DD80E038DDEE
:1006C0001FBC82E18EBD82E889BF8FB780688FBF73
:1006D0000895D3DF98DEFECFEE27FF27AA27BB279A
:1006E00008C0A20FB31FE41FF51F220F331F441FC2
:1006F000551F969587957795679598F37040A9F75C
:10070000009799F7BD01CF010895A1E21A2EAA1B07
:10071000BB1BFD010DC0AA1FBB1FEE1FFF1FA217B1
:10072000B307E407F50720F0A21BB30BE40BF50BAE
:10073000661F771F881F991F1A9469F76095709537
:10074000809590959B01AC01BD01CF0108952F923A
:100750003F924F925F926F927F928F929F92AF9251
:10076000BF92CF92DF92EF92FF920F931F93CF939E
:10077000DF93CDB7CA1BCDBFDD2709942A883988FE
:1007800048885F846E847D848C849B84AA84B98429
:10079000C884DF80EE80FD800C811B81AA81D98115
:1007A000CE0FCDBFCA2F0895262FE199FECF8EBB65
:1007B000E09A81500DB2021639F01CBA2DBB0FB66B
:1007C000F894E29AE19A0FBE08950196272FEDDF83
:0607D000EBCFF894FFCF0F
:00000001FF
