:1000000014C021C020C01FC01EC054C077C01BC078
:100010001AC019C018C017C016C015C014C013C02C
:1000200012C011C010C074C09AC011241FBECFED01
:10003000CDBF20E0A0E6B0E001C01D92AC36B20713
:10004000E1F7B6D062C2DCCFFC01683008F061E0B5
:10005000222379F0BB9A9FB590689FBD5BBD4ABDD6
:100060009EB5987F9EBD9EB5692B6EBDF5BDE4BD66
:100070000895BC9A9FB590629FBD59BD48BDF0CF11
:100080005F9BFECF8CB108955D9BFECF8CB9089528
:1000900087FF05C092988195880F8CBF0895929A2A
:1000A000FBCF87FF05C093988195880F86BF089581
:1000B000939AFBCF1F920F920FB60F9211248F933A
:1000C0009F938091610090916200009769F0019781
:1000D0009093620080936100892B31F080916000E1
:1000E000882349F01BBC1ABC9F918F910F900FBEC3
:1000F0000F901F90189519BC18BCF6CF1F920F9245
:100100000FB60F9211240F900FBE0F901F901895ED
:100110001F920F920FB60F9211242F938F939F93DC
:1001200029B389B390E095958795822780FD11C00A
:100130008091670090916800019690936800809389
:1001400067009F918F912F910F900FBE0F901F907E
:10015000189580916700909168000197EECF1F92EB
:100160000F920FB60F9211242F938F939F9320B36A
:1001700080B390E09595879595958795822784FD26
:1001800011C0809165009091660001969093660081
:10019000809365009F918F912F910F900FBE0F90CC
:1001A0001F90189580916500909166000197EECFA1
:1001B000B0E0A0E0EDEDF0E091C11ABA1BBA17BAB9
:1001C00018BA11BA12BABA9A8D9A8B9A8A9A1BB82F
:1001D00088E18AB99EE293B912B89CE099B990E897
:1001E00095BF8BBF81E084B980E185B981EA80BF8A
:1001F00082E08EBD80E04CDF80E053DF1FBC81E1F8
:100200008EBD82E889BF8FB780688FBF30E1232E13
:10021000312C48EE442E43E0542E612C712C8091F9
:100220006A0090916B00009741F0019709F46CC04F
:1002300010926B0010926A0013C022DF182F809377
:10024000690087FDECCF853251F108F5853009F45E
:1002500050C040F4823009F443C0B8F5813071F0E9
:1002600084E145C08C3009F449C050F48830C0F7AF
:1002700010926800109267008630D9F580E137C08F
:10028000813271F780E00DDF80E002DFF7CF82344A
:1002900031F088F48D3219F048F4893209F741E0E1
:1002A00050E050936B0040936A00B9CF8F32B9F39E
:1002B0008034A9F3D5CF843491F310F1863479F3E7
:1002C000873471F68FB58F731DC0C0916700D091D0
:1002D00068008D2FD9DE8C2FD7DE133009F49FCF25
:1002E000C0916500D09166008D2FCEDE8C2FCCDEC4
:1002F00096CF1092660010926500C0CFC1DEF7CF96
:100300008FB58F7C8FBDBACF10916900B12CA12C15
:10031000193219F0B5DEA82EB12CFA2CEE24F09289
:100320006400E0926300D12CC12C153209F441C065
:10033000A7DEC82ED12C812F897F803411F01F3287
:10034000C1F59EDEC82FD0E0DC2FCC2799DEC82B6C
:1003500097DE082F80E198DEEC28FD28F0926400FB
:10036000E0926300812F877F193251F0912EE8943B
:1003700092F8853211F58A2D94DE59E2951202C069
:100380008C2D86DE1F3261F4B70183E090E067D0E8
:10039000BE0181E090E063D0602F80E090E04ED01D
:1003A000109264001092630010926B0010926A0029
:1003B00036CF00E0D0E0C0E0CDCF82E49816B9F1AE
:1003C00090E49912DFCF412F4470D42E4701B12C15
:1003D000A12CB7017695679590E080E0605C7D4B3D
:1003E000804F9F4FA501940157D0C901202F0031A4
:1003F00008F02FE0A101421B51099A01AC0102C093
:10040000569547952A95E2F72D2D61E01DDEBE0138
:1004100090E080E0A501940126D0A30192013CD098
:100420003093620020936100D0926000ABCF212F07
:100430002470AE01602FC70107DEA4CF262FE199FB
:10044000FECF8EBBE09A81500DB2021639F01CBA75
:100450002DBB0FB6F894E29AE19A0FBE089501966B
:10046000272FEDDFEBCFEE27FF27AA27BB2708C0FA
:10047000A20FB31FE41FF51F220F331F441F551F88
:10048000969587957795679598F37040A9F70097AB
:1004900099F7BD01CF010895A1E21A2EAA1BBB1B3B
:1004A000FD010DC0AA1FBB1FEE1FFF1FA217B30740
:1004B000E407F50720F0A21BB30BE40BF50B661F56
:1004C000771F881F991F1A9469F76095709580951A
:1004D00090959B01AC01BD01CF0108952F923F92F1
:1004E0004F925F926F927F928F929F92AF92BF9244
:1004F000CF92DF92EF92FF920F931F93CF93DF93F0
:0E050000CDB7CA1BCDBFDD270994F894FFCFFD
:00000001FF
