:1000000014C021C020C01FC01EC054C077C01BC078
:100010001AC019C018C017C016C015C014C013C02C
:1000200012C011C010C059C17FC111241FBECFED35
:10003000CDBF20E0A0E6B0E001C01D92A837B20716
:10004000E1F79BD1B8C3DCCFFC01683008F061E078
:10005000222379F0BB9A9FB590689FBD5BBD4ABDD6
:100060009EB5987F9EBD9EB5692B6EBDF5BDE4BD66
:100070000895BC9A9FB590629FBD59BD48BDF0CF11
:100080005F9BFECF8CB108955D9BFECF8CB9089528
:1000900087FF05C092988195880F8CBF0895929A2A
:1000A000FBCF87FF05C093988195880F86BF089581
:1000B000939AFBCF1F920F920FB60F9211248F933A
:1000C0009F938091690090916A00009769F0019771
:1000D00090936A0080936900892B31F080916800C9
:1000E000882349F01BBC1ABC9F918F910F900FBEC3
:1000F0000F901F90189519BC18BCF6CF1F920F9245
:100100000FB60F921124CF92DF92EF92FF920F93CE
:100110001F932F933F934F935F936F937F938F938F
:100120009F93AF93BF93CF93DF93EF93FF93E090B1
:100130006D00F0906E0000916F0010917000E1145E
:10014000F10409F4B5C00115110509F4B1C080919D
:10015000660090916700892B09F4A3C01092670094
:1001600010926600C0917300D09174008091640079
:1001700090916500C81BD90BC0907100D09072009F
:100180008091620090916300C81AD90A80E090E0E3
:100190005BD2282F30E0C901BE0183D2B701ABD2B8
:1001A000EB01C901B6017DD2B801A5D2C61BD70BA0
:1001B00083E090E050D2BE0174D26C0181E090E007
:1001C0004AD2BE016ED2C0916000D0916100C80FCA
:1001D000D91FC83C8CE9D80714F4C8ECDCE9C93352
:1001E00083E6D80714F0C8E3D3E6D0936100C09348
:1001F0006000C6018C599F4F8C0F9D1FB80151D2D2
:1002000064E670E078D261388FEF780714F461E823
:100210007FEF6038710514F06FE770E0862F41DFE3
:1002200024E630E0C9018C199D098C1B9D0BB70198
:1002300038D2B90160D261388FEF780714F461E8E1
:100240007FEF6038710514F06FE770E0862F20DFD4
:10025000809171009091720090936300809362008E
:100260008091730090917400909365008093640076
:10027000FF91EF91DF91CF91BF91AF919F918F91BE
:100280007F916F915F914F913F912F911F910F91AE
:10029000FF90EF90DF90CF900F900FBE0F901F90C8
:1002A000189581E090E09093670080936600E0CF1E
:1002B0008091730090917400909365008093640026
:1002C000809171009091720090936300809362001E
:1002D0008E2DDEDE802FE5DECBCF1F920F920FB684
:1002E0000F9211242F938F939F9329B389B390E09A
:1002F00095958795822780FD11C08091730090911C
:100300007400019690937400809373009F918F9175
:100310002F910F900FBE0F901F9018958091730032
:10032000909174000197EECF1F920F920FB60F922B
:1003300011242F938F939F9320B380B390E09595D2
:10034000879595958795822784FD11C080917100CE
:1003500090917200019690937200809371009F912A
:100360008F912F910F900FBE0F901F901895809135
:100370007100909172000197EECFB0E0A0E0E2EC46
:10038000F1E0EEC11ABA1BBA17BA18BA11BA12BA0A
:10039000BA9A8D9A8B9A8A9A1BB888E18AB99EE29A
:1003A00093B912B89CE099B990E895BF8BBF81E0F2
:1003B00084B980E185B981EA80BF82E083BF80E0B3
:1003C00067DE80E06EDE1FBC81E18EBD88EE93E0CB
:1003D00095BD84BD82E889BF8FB780688FBF30E14B
:1003E000232E312C48EE442E43E0542E612C712CE8
:1003F0008091760090917700009741F0019709F481
:1004000076C0109277001092760014C039DE182F53
:100410008093750087FDECCF8532A1F158F58530CA
:1004200009F45AC048F4823009F44DC008F040C0C5
:10043000813079F084E14EC08C3009F452C058F418
:100440008830C0F71092740010927300863009F063
:1004500043C080E13FC0813269F710927000109272
:100460006F0010926E0010926D0080E01ADE80E046
:100470000FDEEFCF823431F088F48D3219F048F47A
:100480008932C1F641E050E0509377004093760006
:10049000AFCF8F32B9F38034A9F3CCCF843491F34A
:1004A00010F1863479F3873429F68FB58F731DC028
:1004B000C0917300D09174008D2FE6DD8C2FE4DDA8
:1004C000133009F495CFC0917100D09172008D2F37
:1004D000DBDD8C2FD9DD8CCF109272001092710071
:1004E000B8CFCEDDF7CF8FB58F7C8FBDB2CFC091A7
:1004F0007500F12CE12CC53219F0C2DDE82EF12C8B
:10050000DE2CCC24D0926C00C0926B00B12CA12CBC
:10051000C93269F1B5DDA82EB12C8C2F897F8034CA
:1005200011F0CF3221F5ACDD082F10E0102F00279D
:10053000A7DD082BA5DDD82F80E1A6DDCA28DB28A2
:10054000D0926C00C0926B008C2F8B7FC93299F0D7
:100550009C2F977F9532F9F4893209F05CC00E2CFC
:10056000000CFF08F0926E00E0926D0056C0D0E0E3
:1005700010E000E0E1CF0E2C000CFF08F0926E00BE
:10058000E0926D0010926C0010926B001092770058
:10059000109276002DCF8234B9F1803409F044C036
:1005A0005C2F5470F52E4601B12CA12CB601769526
:1005B000679590E080E0605C7D4B804F9F4FA50188
:1005C0009401ACD0C9012D2FD03108F02FE0A1014A
:1005D000421B51099A01AC0102C0569547952A95D4
:1005E000E2F72F2D61E030DDB80190E080E0A50159
:1005F000940168D0A301920191D030936A002093B6
:100600006900F092680010C02C2F2470A8016D2F93
:10061000C6011ADD09C0C53239F40A2C000CBB082A
:10062000B0927000A0926F00CF3209F0ABCFB6014C
:1006300083E090E024D0B80181E090E020D06D2FDD
:1006400080E090E00BD09ECFE199FECF8EBBE09A88
:1006500099278DB30895A8E142E017C0262FE199AC
:10066000FECF8EBBE09A81500DB2021639F01CBA53
:100670002DBB0FB6F894E29AE19A0FBE0895019649
:10068000272FEDDFEBCFA82F862FE82FE199FECFA4
:1006900005C0EEBBE09AE3950DB20D924150C8F74C
:1006A00008950024552704C0080E591F880F991F6C
:1006B000009729F076956795B8F37105B9F7802D05
:1006C000952F0895EE27FF27AA27BB2708C0A20F62
:1006D000B31FE41FF51F220F331F441F551F9695AC
:1006E00087957795679598F37040A9F7009799F7E4
:1006F000BD01CF01089597FB072E16F4009406D094
:1007000077FD08D044D007FC05D03EF49095819544
:100710009F4F0895709561957F4F0895A1E21A2E1D
:10072000AA1BBB1BFD010DC0AA1FBB1FEE1FFF1F95
:10073000A217B307E407F50720F0A21BB30BE40BE5
:10074000F50B661F771F881F991F1A9469F760952C
:100750007095809590959B01AC01BD01CF010895E6
:100760002F923F924F925F926F927F928F929F92C1
:10077000AF92BF92CF92DF92EF92FF920F931F93AF
:10078000CF93DF93CDB7CA1BCDBFDD270994AA1B3A
:10079000BB1B51E107C0AA1FBB1FA617B70710F06C
:1007A000A61BB70B881F991F5A95A9F7809590959E
:0A07B000BC01CD010895F894FFCFBD
:00000001FF
