:1000000014C021C020C01FC01EC054C077C01BC078
:100010001AC019C018C017C016C015C014C013C02C
:1000200012C011C010C059C17FC111241FBECFED35
:10003000CDBF20E0A0E6B0E001C01D92A837B20716
:10004000E1F79BD1ACC3DCCFFC01683008F061E084
:10005000222379F0BB9A9FB590689FBD5BBD4ABDD6
:100060009EB5987F9EBD9EB5692B6EBDF5BDE4BD66
:100070000895BC9A9FB590629FBD59BD48BDF0CF11
:100080005F9BFECF8CB108955D9BFECF8CB9089528
:1000900087FF05C092988195880F8CBF0895929A2A
:1000A000FBCF87FF05C093988195880F86BF089581
:1000B000939AFBCF1F920F920FB60F9211248F933A
:1000C0009F938091690090916A00009769F0019771
:1000D00090936A0080936900892B31F080916800C9
:1000E000882349F01BBC1ABC9F918F910F900FBEC3
:1000F0000F901F90189519BC18BCF6CF1F920F9245
:100100000FB60F921124CF92DF92EF92FF920F93CE
:100110001F932F933F934F935F936F937F938F938F
:100120009F93AF93BF93CF93DF93EF93FF93E090B1
:100130006D00F0906E0000916F0010917000E1145E
:10014000F10409F4B5C00115110509F4B1C080919D
:10015000660090916700892B09F4A3C01092670094
:1001600010926600C0917300D09174008091640079
:1001700090916500C81BD90BC0907100D09072009F
:100180008091620090916300C81AD90A80E090E0E3
:100190004FD2282F30E0C901BE0177D2B7019FD2DC
:1001A000EB01C901B60171D2B80199D2C61BD70BB8
:1001B00083E090E044D2BE0168D26C0181E090E01F
:1001C0003ED2BE0162D2C0916000D0916100C80FE2
:1001D000D91FC83C8CE9D80714F4C8ECDCE9C93352
:1001E00083E6D80714F0C8E3D3E6D0936100C09348
:1001F0006000C6018C599F4F8C0F9D1FB80145D2DE
:1002000064E670E06CD261388FEF780714F461E82F
:100210007FEF6038710514F06FE770E0862F41DFE3
:1002200024E630E0C9018C199D098C1B9D0BB70198
:100230002CD2B90154D261388FEF780714F461E8F9
:100240007FEF6038710514F06FE770E0862F20DFD4
:10025000809171009091720090936300809362008E
:100260008091730090917400909365008093640076
:10027000FF91EF91DF91CF91BF91AF919F918F91BE
:100280007F916F915F914F913F912F911F910F91AE
:10029000FF90EF90DF90CF900F900FBE0F901F90C8
:1002A000189581E090E09093670080936600E0CF1E
:1002B0008091730090917400909365008093640026
:1002C000809171009091720090936300809362001E
:1002D0008E2DDEDE802FE5DECBCF1F920F920FB684
:1002E0000F9211242F938F939F9329B389B390E09A
:1002F00095958795822780FD11C08091730090911C
:100300007400019690937400809373009F918F9175
:100310002F910F900FBE0F901F9018958091730032
:10032000909174000197EECF1F920F920FB60F922B
:1003300011242F938F939F9320B380B390E09595D2
:10034000879595958795822784FD11C080917100CE
:1003500090917200019690937200809371009F912A
:100360008F912F910F900FBE0F901F901895809135
:100370007100909172000197EECFB0E0A0E0E2EC46
:10038000F1E0E2C11ABA1BBA17BA18BA11BA12BA16
:10039000BA9A8D9A8B9A8A9A1BB888E18AB99EE29A
:1003A00093B912B89CE099B990E895BF8BBF81E0F2
:1003B00084B980E185B981EA80BF82E083BF80E0B3
:1003C00067DE80E06EDE1FBC81E18EBD88EE93E0CB
:1003D00095BD84BD82E889BF8FB780688FBF30E14B
:1003E000232E312C48EE442E43E0542E612C712CE8
:1003F0008091760090917700009741F0019709F481
:1004000076C0109277001092760014C039DE182F53
:100410008093750087FDECCF8532A1F158F58530CA
:1004200009F45AC048F4823009F44DC008F040C0C5
:10043000813079F084E14EC08C3009F452C058F418
:100440008830C0F71092740010927300863009F063
:1004500043C080E13FC0813269F710927000109272
:100460006F0010926E0010926D0080E01ADE80E046
:100470000FDEEFCF823431F088F48D3219F048F47A
:100480008932C1F641E050E0509377004093760006
:10049000AFCF8F32B9F38034A9F3CCCF843491F34A
:1004A00010F1863479F3873429F68FB58F731DC028
:1004B000C0917300D09174008D2FE6DD8C2FE4DDA8
:1004C000133009F495CFC0917100D09172008D2F37
:1004D000DBDD8C2FD9DD8CCF109272001092710071
:1004E000B8CFCEDDF7CF8FB58F7C8FBDB2CF109157
:1004F0007500B12CA12C193219F0C2DDA82EB12C37
:10050000FA2CEE24F0926C00E0926B00D12CC12CFE
:10051000153209F44AC0B4DDC82ED12C812F897F51
:10052000803419F01F3209F040C0AADDC82FD0E096
:10053000DC2FCC27A5DDC82BA3DD082F80E1A4DDAF
:10054000EC28FD28F0926C00E0926B00912F977FD1
:10055000193269F0812F8B7F953259F50A2C000CE6
:10056000BB08B0927000A0926F00893239F40C2C55
:10057000000CDD08D0926E00C0926D001F3261F455
:10058000B70183E090E06FD0BE0181E090E06BD0D6
:10059000602F80E090E056D010926C0010926B00BB
:1005A000109277001092760023CF00E0D0E0C0E0F8
:1005B000C5CF8234B1F1803409F7512F5470D52E54
:1005C0004701B12CA12CB7017695679590E080E0AA
:1005D000605C7D4B804F9F4FA501940193D0C90172
:1005E000202F003108F02FE0A101421B51099A0190
:1005F000AC0102C0569547952A95E2F72D2D61E092
:1006000023DDBE0190E080E0A50194014FD0A3015D
:10061000920178D030936A0020936900D0926800EC
:10062000ADCF212F2470AE01602FC7010DDDA6CF05
:10063000E199FECF8EBBE09A99278DB30895A8E18A
:1006400042E017C0262FE199FECF8EBBE09A815081
:100650000DB2021639F01CBA2DBB0FB6F894E29A0F
:10066000E19A0FBE08950196272FEDDFEBCFA82F5B
:10067000862FE82FE199FECF05C0EEBBE09AE39507
:100680000DB20D924150C8F708950024552704C0BB
:10069000080E591F880F991F009729F076956795C6
:1006A000B8F37105B9F7802D952F0895EE27FF2730
:1006B000AA27BB2708C0A20FB31FE41FF51F220FF4
:1006C000331F441F551F969587957795679598F327
:1006D0007040A9F7009799F7BD01CF01089597FBE6
:1006E000072E16F4009406D077FD08D044D007FCFE
:1006F00005D03EF4909581959F4F08957095619532
:100700007F4F0895A1E21A2EAA1BBB1BFD010DC04D
:10071000AA1FBB1FEE1FFF1FA217B307E407F507B1
:1007200020F0A21BB30BE40BF50B661F771F881F8D
:10073000991F1A9469F760957095809590959B0123
:10074000AC01BD01CF0108952F923F924F925F926D
:100750006F927F928F929F92AF92BF92CF92DF92D1
:10076000EF92FF920F931F93CF93DF93CDB7CA1BE6
:10077000CDBFDD270994AA1BBB1B51E107C0AA1FEF
:10078000BB1FA617B70710F0A61BB70B881F991F32
:100790005A95A9F780959095BC01CD010895F894DC
:0207A000FFCF89
:00000001FF
